:080000006F3010430000000006
:10000800B71402409305E0408CC483A20400370370
:100018000001B3E2620023A0540083A30400370E5A
:100028000002B3F3C301E38A03FE83AE8400370FF3
:100038000080B3EEEE0123A4D401894F23A2F4017A
:1000480003A94400A14933793901E30B09FE1305DB
:10005800000F9705FFFF9385E5FA1746FFFF130684
:1000680066AE63FAC5008322050023A0550011057A
:100078009105E3EAC5FE1745EFDF1305E5C397458C
:10008800FFFF938525AC1746FFFF1306A6AB63FA5F
:10009800C5008322050023A0550011059105E3EA58
:1000A800C5FE1745EFDF130525C1970500009385A9
:1000B80065051386818363FAC5008322050023A0A2
:1000C800550011059105E3EAC5FE1385818397352F
:1000D80000009385A5B56377B500232005001105B9
:0800E800E36DB5FE828000000B
:1000F0000000000000000000DA021020DC021020E6
:100100000000000062061020000000000000000057
:1001100062061020620610200000000000000000AF
:100120006206102062061020EC0210200000000081
:10013000620610206206102062061020620610205F
:1001400000000000000000000000000000000000AF
:10015000000000000000000000000000000000009F
:1001600062061020000000000000000000000000F7
:10017000620610206206102062061020620610201F
:10018000620610206206102062061020620610200F
:1001900062061020620610206206102062061020FF
:1001A00062061020620610206206102062061020EF
:1001B00062061020620610206206102062061020DF
:1001C00062061020620610206206102062061020CF
:1001D000B017102062061020620610206206102060
:1001E0006206102000000000620610206206102047
:1001F0006206102062061020620610205A1110209C
:10020000620610206206102062061020620610208E
:10021000620610206206102062061020620610207E
:10022000620610206206102062061020620610206E
:10023000620610206206102062061020620610205E
:10024000620610206206102062061020620610204E
:10025000620610206206102062061020620610203E
:10026000620610206206102062061020620610202E
:10027000620610206206102062061020620610201E
:10028000620610206206102062061020620610200E
:1002900062061020620610206206102062061020FE
:1002A00062061020620610206206102062061020EE
:1002B0006206102062061020620610200000000076
:1002C00062061020620610206206102062061020CE
:1002D00062061020620610206206102062061020BE
:1002E0006206102062061020000000006206102046
:1002F00062061020000000000000000062061020CE
:1003000000000000000000006206102062061020BD
:100310006206102062061020620610200000000015
:10032000620610206206102062061020620610206D
:10033000620610206206102062061020620610205D
:1003400062061020397101436EC619A039714153FC
:100350006AC866CA62CC5ECE19A0397101535AD000
:1003600056D252D44ED64AD826DA22DC06DE3301E3
:100370006140828241114AC026C222C406C68282DE
:10038000B24D4101024D924C224CB24B4101024B05
:10039000924A224AB2494101024992442244B2405F
:1003A000410182802A8309CA8383050023007300E8
:1003B0007D16050385056DFA82802A8311C6230008
:1003C000B3007D16050365FE828001A0B707EFBE6E
:1003D00037E700E0938707083CC701A01967028749
:1003E00001A0EFF23FF9A920F52AEF1010303715E0
:1003F0000E00EF10D0341305803EEF10303183A58E
:100400008180373510201305057FEF20C023B70703
:10041000112083A5471E3745102013050580EF20C6
:1004200080221305401FEF10702EEF10B04501A081
:10043000EFF25FF4B71702409843B7065C30411102
:100440001367170098C3D84337140240758FD8C379
:100450005C40B18BF5FF5C403707A76A7D17939727
:1004600067495CC01C449397F7491CC41C40F98F32
:100470001CC01C4037C7FF0F939727491CC01C4462
:10048000F98F1CC41C443707600C93E747001CC459
:10049000B707FF005CC41C58F98F1CD85C5837E7BD
:1004A000F0FF13070708F98F5CD85C58370708007E
:1004B00013070702D98F5CD8EF00E07A02C202C4AA
:1004C00002C61C40B7160240370602009397072960
:1004D000370700011CC09C42F18F3EC4924785073C
:1004E0003EC2A24781E79247E397E7FEB717024073
:1004F0009C4337070200F98FE5C785473EC4224772
:100500008547631DF70CB71702409847F17693862D
:10051000F60F019B98C798471367070198C798473C
:10052000758F98C798479306000298C79847137726
:10053000F7F198C798471367070298C7984713774A
:10054000070EE31DD7FE9843B7060002131787294D
:1005500098C3B71702409843758F75DF9847B70661
:100560000090FD161317F74998C79847758F98C7DD
:10057000B7060070B71702409847758F75FFD843CC
:10058000B706FDFFFD161377F7F0D8C3D843D8C3DD
:10059000D843758FD8C3D843B726024013171729FD
:1005A000D8C398423AC63247719B3AC6324713675E
:1005B00017003AC6324798C29847B7160240131739
:1005C000F72998C7D843719BD8C3D843136727002E
:1005D000D8C32147DC42B18BE39EE7FE41016DBBEE
:1005E00002C431BFB7170240D44398472146B18AAD
:1005F0006394C602B7060070758F37060050630516
:10060000C7146360E6021DC7B7479C1CB7060040CD
:10061000938707806307D706B7877D019387078491
:100620008DA0370600606302C710B7677307938712
:100630000794CDB79047944798479305000A93F6DF
:10064000060E21831377F7037D8A05076394B608A6
:10065000B767CD1D9387075033D7E702B70711203F
:1006600093870712B2979C239146B387E7026309E9
:10067000D600856693860654B3D6C600858A91C295
:10068000858323A4F1803716024054423707112096
:10069000130707119182BD8A36971823B7061120D8
:1006A0009386061EB3D7E7005842416641830D8BFF
:1006B0003697182333D7E70023ACE182B7F600E082
:1006C00083A606D1F18E91E2BA8737071120232243
:1006D000F71E82809305000E6392B602D45BB707C3
:1006E000112093870710C182B6979C23B7867D019E
:1006F00093860684B387D7028583B9BF9307000822
:100700006397F600B7479C1C93870780B1B79307A0
:10071000000C6397F600B7677307938707942DBFA4
:10072000B7877D019387078405BFD85BB707112082
:10073000938707104183BA979C2337877D0113075E
:100740000784B387E7022DBFB767CD1D9387075096
:100750000DBF01A0011106CE22CC0010B707000882
:100760009C432326F4FE1520AA872326F4FE832724
:10077000C4FE93F707F02326F4FE8327C4FE998373
:100780003E85F240624405618280B7270240C84F2F
:1007900009818280B7270240C847058911E5C8470B
:1007A0004189133515000D058280EFF2BFBCAA8484
:1007B0000549CD376318250199E0154529A0D93F92
:1007C000FD14CDBFFDD8C9BEEFF2DFBAB727024096
:1007D000DC5737070010F98F8DCFF9773379F500A3
:1007E0003705000AD93791476314F502B724024050
:1007F0009C483705000A93E727009CC823AA2401D8
:100800009C4893E707049CC84D379C48F59B9CC8BF
:1008100061B6FD77E1B7B7066745B7270240938613
:1008200036123797EFCDD4C31307B79AD8C3D4D3B2
:10083000D8D38280372702401C4B137505F093975D
:1008400007291CCB5C47858BF5FF372702405C47A7
:10085000898BF5FF3727024013060010B386F50099
:1008600003A80600B386A70023A006015447898A7F
:10087000F5FE9107E394C7FE1C4B939757291CCBB9
:10088000B7270240D847058B75FF984B13170749C8
:1008900098CB8280EFF21FAEB71701401387078015
:1008A000631BE50085451145EF0070038145114547
:1008B000EF00F002D5B4138707C06319E500854542
:1008C0002145EF00D00181452145DDB76319F500D1
:1008D00085454145EF00B00081454145D1BF938733
:1008E0000740631BF500854513050002EF00207FDC
:1008F0008145130500026DBFB727014013870780AC
:10090000631BE500854513050004EF00407D81452C
:100910001305000471BF938707C0E31DF5F88545F3
:1009200013050008EF00A07B81451305000849B7B7
:100930009C4503D8050013F7070193F8F7001DCB7A
:10094000584D93E8180081468D4E414E3316D028FD
:100950003373C800631C66001393160033966E0051
:100960003377C740D04133166600518F8506E39F29
:10097000C6FD58CD1377F80F1DCF184181461303DC
:1009800080023D4E930E8004A1453316D028337F5C
:10099000C800631EE6016395670650C913962600DA
:1009A000331FCE003396C8003377E741518F850659
:1009B000E39DB6FC18C11307F00F6372070554419D
:1009C0000146130E8002930E800421431307860014
:1009D0003317E028B375E800631FB7006396C703B9
:1009E00058C913172600BD45B395E5003397E800B5
:1009F000B3F6B640D98E0506E31A66FC54C1828070
:100A0000E39ED7F910C959BFE39DD7FD18C9D1BFDF
:100A100037080140B707300003260800B376F50019
:100A2000334705086397F602B70600F1FD16B37762
:100A3000D60003260800F18E2320D80099C54581F1
:100A4000137505073317A700D98F370701401CC35B
:100A50008280B7071000E98F89CF93560501BD8AC0
:100A60008D47B397D700B706000FB377F640D58F01
:100A7000F1B7935755019207B317F700EDB7371742
:100A800001409D479306078063F8B702938785FF6F
:100A900093F7F70F631AD506B70601408C468A070D
:100AA0003D473317F70033F7E54098C69846B3172C
:100AB000F600D98F9CC682806308D502930707C0D1
:100AC000630AF508631CE51637070140544B8A0595
:100AD000BD47B397B700B3F7F6405CCB5C4BB3159B
:100AE000B600DD8D4CCB82803707014054438A0528
:100AF000BD47B397B700B3F7F6405CC35C43B3158B
:100B0000B600DD8D4CC38280930607C06304D50216
:100B10006312E510B70601408C4E8A073D47331734
:100B2000F70033F7E54098CE984EB317F600D98F0B
:100B30009CCE8280B70601408C4A8A073D47331716
:100B4000F70033F7E54098CA984AB317F600D98FF3
:100B50009CCA82803707014054478A05BD47B39736
:100B6000B700B3F7F6405CC75C47B315B600DD8D40
:100B70004CC782803727014013070780AE87631870
:100B8000E5043707014054538A05BD47B397B700C2
:100B9000B3F7F6405CD35C53B315B600DD8D4CD390
:100BA000828037270140130707806312E502B706EA
:100BB00001408C568A073D473317F70033F7E5406D
:100BC00098D69856B317F600D98F9CD682803727CF
:100BD0000140130707C06317E5088A073D4733172D
:100BE000F7003316F6009D471347F7FF63FBB70086
:100BF000B7070140945B758F98DB985B518F98DB4A
:100C00008280B7070140D457758FD8D7D857518FF6
:100C1000D8D7828013070740E315E5F8B7060140EF
:100C20008C528A073D473317F70033F7E54098D2D7
:100C30009852B317F600D98F9CD2828013070740D1
:100C4000E31AE5F237070140544F8A05BD47B397D1
:100C5000B700B3F7F6405CCF5C4FB315B600DD8D3F
:100C60004CCF82808280EFF2EFF041118545130571
:100C7000C00F02C202C402C63D21E93CB7F7FF1F04
:100C800083A7477093F7070F8DE3854537050080ED
:100C90000D29B787004093870740D8538145370512
:100CA000008013671700D8D32929B7F7FF1F83A740
:100CB0004770370771411307D75093F7F7F06380F8
:100CC000E7086361F702370750411307D750638D78
:100CD000E70C370760411307D7506385E7124101DE
:100CE0006FF08FEB370772411307D750E399E7FE98
:100CF00009649307F4FDB71401407C824C0093070C
:100D00008002138504803EC62531E1779387C70FA3
:100D10004C00138504C07C822139F977938707033F
:100D20004C00371501407C822131930700304C0084
:100D30001385044071147C82E53E6082B9A03714AB
:100D400001409307E01C7C824C009307800213054E
:100D500004803EC6F13EE1779387470E4C001305B1
:100D600004C07C82F136F977938707034C0037156E
:100D700001407C82753E930700304C00130504400F
:100D80007C827D36930740387C82372401404C00BA
:100D900013050480713E9167938707FC4C0013058F
:100DA00004C07C82713625BF3714014093070010C0
:100DB000130504807C824C00930780023EC68D3E62
:100DC00093074002130504C04C007C829536F977E6
:100DD000938707024C00371501407C82913EDD5716
:100DE000130504404C007C82372401409136930760
:100DF00070784C00130504807C821D3EE17793C718
:100E000077FC69BF37140140930700701305048015
:100E10007C824C00930780023EC6193E930740C077
:100E2000130504C04C007C822136F9774C0037153D
:100E300001407C82F53C9307309F130504404C0031
:100E40007C82FD34E1773724014093C7F7DF4C0003
:100E5000130504807C82E93C95679387F7833DBF47
:100E6000B71702409843B7065C301367170098C362
:100E7000D843758FD8C3371702405C43B18BF5FF59
:100E8000B7170240D4433706A76A7D169396664982
:100E9000D4C394479396F64994C71443F18E14C370
:100EA00014439396264914C39847B7C6FF0F758F0E
:100EB00098C79847B706600C1367470098C737076D
:100EC000FF00D8C7985B758F98DBD85BB7E6F0FF5B
:100ED00093860608758FD8DBD85BB7060800938623
:100EE0000602558FD8DB8280B7170240D44398475B
:100EF0002146B18A6394C602B7060070758F370623
:100F00000050630EC7146360E6021DC7B7479C1C00
:100F1000B7060040938707806307D706B7877D0130
:100F2000938707848DA037060060630BC710B767EF
:100F3000730793870794CDB79047944798479305D5
:100F4000000A93F6060E21831377F7037D8A0507BF
:100F5000639DB608B767CD1D9387075033D7E70267
:100F6000B707112093870716B2979C239146B38742
:100F7000E7026309D600856693860654B3D6C60099
:100F8000858A91C285831CC13716024054423707B7
:100F90001120130707159182BD8A3697182393866F
:100FA0008181B3D7E7005842416641830D8B369764
:100FB0001823B7F600E033D7E70058C183A606D15F
:100FC000F18E91E2BA871CC5371602405C4263DDA0
:100FD00007085C4237479C1C13070780AD83FD8BD5
:100FE00095073357F70258C582809305000E639228
:100FF000B602D45BB707112093870714C182B69756
:101000009C23B7867D0193860684B387D7028583A8
:10101000B1B7930700086397F600B7479C1C938706
:1010200007802DBF9307000C6397F600B76773071F
:101030009387079425B7B7877D019387078439BFC6
:10104000D85BB7071120938707144183BA979C2375
:1010500037877D0113070784B387E70225B7B76792
:10106000CD1D9387075005B7544293870181AD8208
:101070009D8AB6978C235C429386C180B9838D8B01
:10108000B6979C233357B700A9BF99C537170240BD
:101090001C4FC98F1CCF8280B7170240984F337501
:1010A000A74088CF828099C5371702405C4FC98F0F
:1010B0005CCF8280B7170240D84F3375A740C8CFA6
:1010C000828099C5371702401C53C98F1CD3828078
:1010D000B717024098533375A74088D3828099C5CB
:1010E000371702401C4BC98F1CCB8280B7170240B8
:1010F000984B3375A74088CB8280371702401C433A
:1011000009C5939747291CC3828093974749E5BF38
:10111000371702405C4309C5939777295CC38280E7
:1011200093977749E5BFB7170240D85B719BD8DB2F
:10113000D85B498FD8DB8280B7170240D85B4D9BC4
:10114000D8DBD85B498FD8DB8280B7170240D85BE9
:10115000F9769386F60F758FD8DBD85B498FD8DB8D
:101160008280EFF22FA11A29F577FD177D8FFE21DE
:1011700096254111D98F1EA9DE215A252A84D58FA3
:10118000B625AE84D58F8D669386369F758FD98FA1
:101190005EA55E29DA25B3C7070893F7F7CFD98F85
:1011A0005EA90A859133924765459040B335F502B3
:1011B00081460A063305F502EF10400F93064006FC
:1011C000B357D5021306F06313974700B377D502E0
:1011D000920793872703637AF60093070701B3C743
:1011E00007081EA441016FF02F9BB3D7D702D98FF8
:1011F000FDB75E2589C59397D7285EA5828079774C
:101200007D17F98FDDBF93F5F51F4EA182800A216E
:101210006D8D3335A0008280B73702403147A386F9
:10122000E740938707401387419098CB37071120F9
:101230001307472698CF09472389E702A3890702A6
:10124000A38D0702238DE7028280011122CE37345D
:10125000024026CC4ACA4EC852C656C40347644010
:1012600083477440130404409376F70F098B630897
:10127000074E93F7F70F13F7070393060002630C6B
:10128000D704930600036301D71431EF13F7F70374
:101290006306071289466318D70493F70704A1C7AA
:1012A0008347B403014593F7C70F93E72700A30DC6
:1012B000F4028347B40393C74700A30DF4020E243E
:1012C00093F5F50FEF00903D8347B40393F7C70FF5
:1012D000A30DF40209A893F7F7036386E702130747
:1012E0002002638EE70AB737024009472383E740AD
:1012F000938707407244E2445249C249324AA24AA3
:1013000005617300203083D7018481E79147A309E9
:10131000F40283C7618493F70706F1F783C77184EA
:10132000954613F7F70F6380D7069947E31DF7FA41
:1013300003D701849307F0031304000463E6E70076
:1013400003D401843344040803A981842286CA8516
:1013500013854190EFF00F8583D70184229923A450
:101360002185818FB3C707081374F40F2390F1848C
:10137000B73702402388874203C7274313474700F4
:101380002389E7428DB7B737024083C6374003C78A
:10139000E18393F60608558FA381E740A9B78347F9
:1013A000A40393C74700230DF4028347A40393F7D4
:1013B000C70F93E72700230DF40235B793F707040F
:1013C0009DD383C7618405B799472309F402A30914
:1013D000F4029387419098232383E1849833B623C2
:1013E000A383E184FA23DE23138641902390E184D2
:1013F0002392D1842391F18483C9618493F90906EE
:101400006390091483C571842D4893F7F50F636EBB
:10141000B80AB745102093858581B3C7B7209C4390
:10142000828783D741840D46A1836383C70C636C95
:10143000F60005476388E7020947638DE7028147A5
:101440009309F00F91A0130710026388E7081307B0
:101450002002E396E7FE374710201307C78B23A42B
:10146000E1841DA0B74710209387C79023A4F1847F
:101470009C2319A8B74710209387078EB82323A46D
:10148000F184BC33A207D98F03D7018463F4E7004A
:101490002390F18403D701849307F003130A000417
:1014A00063E6E70003DA0184334A0A0883AA8184E9
:1014B000528613854190D685EFE0DFEED29A23A4C1
:1014C00051859307F00F639DF906B73702401D471A
:1014D0002389E742A389E74239B583D72184A5F35D
:1014E000B74710209387278F23A4F184A54769BFAE
:1014F00003D7418489461377F70F6308D70263EA5D
:10150000E60019EF9387018323A4F18481499C238A
:10151000A5BFE316F7F2B747102093878787B9B7BF
:10152000B74710209387C78A91B7B7471020938792
:1015300007892DBF83D7418493F7F70F238FF1825B
:1015400083C7618403D701849397476063DA071EDA
:101550009307000463E6E70083D70184B3C7070855
:1015600003D701841D8F3347070893F7F70F2390A4
:10157000E184373702402308F74291472309F742B5
:101580009DB383C7F1831CA203D701848547E3F988
:10159000E7FA2390F1846DB783D7418493F7F70F6F
:1015A000A38FF1820547238EE18259BF83C76184EF
:1015B000FD8B99EF83D74184054793F7F70FE391AC
:1015C000E7F883C7D18393F7E70FA38EF1828DBF2E
:1015D00083C761840946FD8BE399C7EE03D7418435
:1015E0001377F70FE31307EE83D6218437370240D2
:1015F0001307074093F6F60F6389F60013062008D9
:10160000E395C6EC230DF70225BFA30D07020DBF1E
:1016100083C76184FD8B8DE783D74184054793F7AA
:10162000F70FE394E7EAB747102083C7778E93F765
:101630000702E38C07E883C7D18393E7170071B7EC
:1016400003C6618489477D8AE311F6E883D7418424
:1016500093F7F70FE39B07E603D72184B7370240E0
:10166000938707401377F70F630DC7009306200891
:10167000E31DD7E403C7A70313673700238DE702F1
:10168000C1B503C7B70313673700A38DE7024DBD8C
:1016900023000600D5BD83C7618423920190FD8B92
:1016A00091EB83C7D183858BB5CB89471CA203D728
:1016B0000184F1BD83C761840947FD8B6394E7060C
:1016C00003D721841377F70F6315F702B73702406A
:1016D0009387074083C7B7038D468D8B6394D700EC
:1016E00085471CA283D70184E37CF7E42390E1843F
:1016F00081BD03D72184930620081377F70F631A5F
:10170000D70237370240130707400347A7038D4628
:101710000D8BE31ED7F8054718A251BF03D70184EC
:101720008947B5B583D70184E371F7DA2390E18463
:1017300069BB03D70184E3FAE7D82390F18471B33E
:10174000B73702409387074019E7238807021147FC
:101750002389E70249BE1147A389E70269B693F7D7
:10176000160099CFA38F0182238F0182A38E01825D
:10177000238E0182A3010400453485477CA09DBED1
:1017800093F7460099C39147D5BF74A0A5B6EFE281
:101790007FBEB71702409C4737070070F98F3707A5
:1017A00000406388E7020145EFF03F950145EFF007
:1017B0009F970145EFF05F980145EFF01F990545B0
:1017C000EFF0BF93B7160240370720009C42F98F15
:1017D000F5DF0545EFF0DF9385451315B028EFF0F1
:1017E000DF8A6FE07FBBB707034015479AABBAAB00
:1017F00013070004F8CFB8D3F8D31387419898D3D0
:101800001387419498D7238F07080947A38FE708C8
:101810002383070AA383E70A8280EFE2BFB501C5ED
:10182000BD376FE07FB781451315B028EFF0FF8516
:101830000145EFF0FF8DB71702409C473707007056
:10184000F98F37070040E38EE7FC0145EFF0FF8A90
:10185000C9BFEFE23FB21DC51D3F37040340A54796
:101860001CA09307F0053CA0BD3F85471CB0930723
:1018700080FB1CA037070001B7E700E023A2E710B8
:101880006FE09FB1B70703400D4798A3B7E700E0AB
:101890003707000123A2E7180F100000BD3FCDB7A6
:1018A000011126CC22CE4ACA4EC852C656C4B7042D
:1018B000034094249C3413F7F60FC18A6380064ECC
:1018C00093F7F70F13F77700C18B639A073E09CFA1
:1018D00089476307F73A7244E2445249C249324A9F
:1018E000A24A05617300203083C7F40993F7F70714
:1018F000A38FF40883C7F409A18B6384073683C7D9
:10190000F4099397476063CE0734938741989823EF
:10191000B623238BE1849833A38BE184FA23DE235F
:101920002398E184239AD1842399F18483C9618522
:101930009386419893F909066387090283C76185F5
:101940001307000293F707066382E70E83C76185DA
:1019500093F70704E1EFB70703401547238FE70824
:10196000A38FE7088DBF83C571852D4893F7F50FC9
:10197000E363B8FEB745102093858584B3C7B720CD
:101980009C43828783D741858D46A183638FD70C83
:1019900063ECF60005476388E7020947638DE702B9
:1019A00081479309F00F91A0130710026381E7109C
:1019B00013072002E396E7FE374710201307C78B73
:1019C00023ACE1841DA0B74710209387C79023ACB8
:1019D000F1849C2319A8B74710209387078EB8235A
:1019E00023ACF184BC33A207D98F03D7018563F4FC
:1019F000E7002398F18403D701859307F003130AC6
:101A0000000463E6E70003DA0185334A0A0883AA83
:101A10008185528613854198D685EFE0BF98D29A8A
:101A200023AC51859307F00FE387F9F283C76185F3
:101A30009397476063D8072003D701859307000475
:101A400063E6E70083D70185B3C7070803D701859D
:101A50001D8F334707082398E18437070340231E6F
:101A6000F7089947230FF708BDB503D74185894685
:101A70001377F70F6308D70263EAE60019EF93873D
:101A8000018323ACF18481499C2385B7E31AF7F0E5
:101A9000B7471020938787871DBFB74710209387CC
:101AA000C78A35B7B7471020938707890DB783D703
:101AB0002185E39707EEB74710209387278F23AC44
:101AC000F184A5471DB783D7418593F7F70F238787
:101AD000F184A9BF83C7F1849CA203D70185854700
:101AE000E3F6E7F42398F18491B783D7418593F720
:101AF000F70FA387F18405472386E18405BF83C7D9
:101B00006185FD8B99EF83D74185054793F7F70FE3
:101B1000E393E7E483C7D18493F7E70FA386F184C7
:101B200031B783C661858947FD8AE396F6E283D79C
:101B3000418593F7F70FE39007E283D7218593F769
:101B4000F70F638BD70013072008E396E7E0B7078A
:101B500003402383070AD9BD37070340A303F70ACD
:101B6000F1B583C76185FD8BE38707DE83C6618599
:101B70008947FD8AE39CF6EA83D7418593F7F70FFF
:101B8000E39607EA83D7218593F7F70F6381D7029E
:101B900013072008E391E7DC370703408347670A10
:101BA00093F7C70F93E717002303F70A41B53707E9
:101BB00003408347770A93F7C70F93E7170079BF6E
:101BC0002380060019BF83C76185239201980947C6
:101BD000FD8B6398E70403D721851377F70F630222
:101BE000F702130620086318C704370703400347AA
:101BF000670A05460D8B6313C70098A203D70185BA
:101C0000C5B5B707034083C7770A05468D8B639335
:101C1000C7009CA283D70185E37AF7E02398E1848B
:101C200031B583C76185FD8BF5F783C7D184858B7B
:101C3000F5D398A2C5B703D70185E3FEE7D0239873
:101C4000F18411BB83D7018589EBB7070340239E3D
:101C500007081947238FE708BDB9B707034019479D
:101C600001B3B7070340A38F070883D7C70783C70C
:101C700061852398018483D70185E39E07C4F1B76A
:101C800083C7740A93F7F707A383F40A83C7740A18
:101C9000C18B89CF83D54408054593F5F50FFD2AFF
:101CA00083C7740A93C74700A383F40A83C7740ADF
:101CB00093F7C70F93E72700A383F40A29B91DC739
:101CC0008947E31AF7C083C7640A93F7F7072383AA
:101CD000F40A83C7640A93C747002383F40A83C7BF
:101CE000640A93F7C70F2383F40AF5B683C7E409A0
:101CF00093F7F707238FF40883D7018581E7994786
:101D0000A38FF40883C7618593F70706E39507BCA3
:101D100083C77185954613F7F70F6384D7069947F4
:101D20006319F70603D701859307F0031304000432
:101D300063E6E70003D401853344040883A4818566
:101D40002286A68513854198EFE0CFE583D70185EC
:101D5000A29423AC9184818FB3C707082398F184A0
:101D6000B7070340239E870803C7E70913474700C7
:101D7000238FE70803C7E7091377C70F1367270007
:101D8000D1BD83C7E1843707034093F7F70F3CB316
:101D900099B6B7070340239E070835BE937707041B
:101DA00089C7930700049CA43DB69377270095C785
:101DB00089479CA4B824098B11CB03C7D18413672E
:101DC0002700A386E18483C7D18431B603C7D184B9
:101DD0001377D70FA386E184FDBC9377170099CFC3
:101DE000A387018423870184A38601842386018439
:101DF000A3810400EFF03F9F854775B798A4E1BC2D
:101E0000EFE24FD7854785456311F5022545EFF091
:101E10008FA937053000130505408545EFE05FBF0A
:101E20000545EFF01FA36FE02FD72545EFF0AFA7D3
:101E300037053000130505408545EFE07FBD0145BE
:101E4000CDB715E9EFE20FD3130600049385419C4B
:101E50001385418CEFE00FD5B7370240130700041C
:101E6000238CE74203C7A74301451377C70F238D90
:101E7000E7426FE06FD2370703409385419C6CC304
:101E8000930700042312F70A8347670A014593F773
:101E9000C70F93E727002303F70A8280EFE28FCD75
:101EA000AA842E8615CD93854194138541A0EFE039
:101EB0006FCF312C89472A846302F5021389419C34
:101EC0008145130600041385419CEFE00FCF3334A6
:101ED000800089452685A3008900A5376FE0CFCB18
:101EE000B707112093854726C9B783A78183374752
:101EF0000F0013070724B3D7E7022390F1861307D7
:101F0000803EB387E70223AEF1848280B7F700E01A
:101F1000D843799BD8C303A7C18523A40700330501
:101F2000E502114788CB98C398431367170098C3FD
:101F3000D843058B75DF9843799B98C38280EFE285
:101F40006FC32A841165011185451505B714014039
:101F500002C202C402C602C802CA02CC02CEEFF01C
:101F60008F941D4613850480A545EFE05FB193076C
:101F700000207C828D473EC44C00E14713850480DD
:101F80003EC6EFE0FF9A22C837440140B707080079
:101F90000C08130504803ECC02CA231E0100EFF09A
:101FA0004F9C854513050480EFF0AFA405616FE0F9
:101FB000AFBEEFE28FBA37490140AE893284814427
:101FC0001309098063C5840022856FE04FBC930527
:101FD00000044A85EFF0AFA37DD9B38799008385CC
:101FE00007004A858504B3C50508EFF0CFA1D9BF26
:101FF000AA8703A5C18137371120130787C2AA9783
:1020000063EBE70037571120130707806365F7007C
:1020100023AEF18082807D5582806FE0BF81EFE248
:102020006FB50145F13B13052003CD353745102031
:1020300013050592EF00007513052003C13D371409
:10204000014013050480EFE0FF84130504C0EFE0B6
:102050007F8481451145EFF00F8581452145EFF0E3
:102060008F8481451165EFF00F8429454535EFE0F8
:102070003FDFB7E700E0116723A0E71023A0E720C8
:102080006FE08FB1EFE20FAF376400080C403745C7
:1020900010201305C592452BB7870708F117984301
:1020A000144037E739E313079733638BE60098430F
:1020B000B767A55A938757AA6304F7008D3701A025
:1020C00005453D3B83C72186F5DF913F01A0EFE247
:1020D000CFA8138741A0834A1700182391460545CE
:1020E0001347070863EEE608138941A0B74710209D
:1020F000938787933347F7201C4382873706112045
:10210000CA87814613068642850763EF560783A771
:102110004186D69723A2F18603A7418683A7018231
:10212000636FF704EFE02FEF03A58182014AEFE030
:10213000AFE9B7071120938487421389874283A7A9
:102140000182A183636AFA04814703A74186B386AB
:10215000F40063F6E7029822B306F90085071377C7
:10216000F70F98A2DDB7EFE00FEBB7270240DC577F
:1021700037070010F98F99C7896723A0F1820145BD
:102180006FE0EFA08567D5BF03A741868C333697F4
:1021900032970CA385068DBF03A58182A685050A0B
:1021A000AD3D83A7418693840410938707F023A253
:1021B000F18683A781829387071023A4F18241B718
:1021C00003C7818619E705472384E18683A74186F3
:1021D000A1EFCA870147636E5707014583A7418274
:1021E000D69723A2F18269BF83A74186BA97A697A3
:1021F00094A3050703A441863A941374F40F6DF475
:1022000003AA418683A7018203A58182130AFA0FDC
:10221000B307F0407D8DEFE02FDB135A8A00631C7B
:102220008A0023A2018675B7B70411200147938461
:102230008442FD56C1B703A58182A6850504F13B02
:1022400083A78182938404109387071023A4F182CB
:10225000F9B703A64182EC2385073A96102263144E
:10226000B60005078DBF054595BF23840186054748
:102270002381E186B767000823A4F18223A2F182BB
:1022800003A50182B7870708F1173305A0407D8DAC
:10229000EFE08FD3B7270240984B09451317F72873
:1022A00098CB984B1367070898CBD9BD3288AA887A
:1022B0002E87CDEA63FFC50EC167636AF618B707BC
:1022C0000001B337F600B307F040E19BE107335359
:1022D000F600971600009386A6769A96942213032A
:1022E0000002B697B306F340630BF3003397D500B3
:1022F000B357F5003318D6005D8FB318D5001356C9
:1023000008013355C702B346080893D7080133774D
:10231000C702B385A6024207D98F63FAB700C297F6
:102320001307F5FF63E4070163E8B7303A858D8F43
:1023300033D7C702B3C80808B3F7C702B386E602AB
:10234000C207B3E8F80063FBD800C2989307F7FF11
:1023500063E50801791763E3D8003E874205598D8C
:102360008145828063F5D500814501458280C16742
:1023700063E5F618B7070001B3B7F600B307F040FE
:10238000E19BE10733D8F600171700001307476BEE
:1023900042971823930800023E973388E8406392DF
:1023A000E81863EDB6263335C500134515008145A1
:1023B000828045C6C167637BF62413370610134736
:1023C00017000E07B356E60097170000938747677C
:1023D000B6979C2393060002BA97B38EF640639D8E
:1023E000F608B387C540854593560601334606086F
:1023F00033D5D70213D70801B3F7D7023303C50289
:10240000C207D98F63FA6700C2971307F5FF63E429
:10241000070163E067223A85B387674033D7D70265
:10242000B3C80808B3F7D7023306C702C207B3E838
:10243000F80063FBC800C2989307F7FF63E5080143
:10244000791763E3C8003E874205598D8280933730
:10245000061093C717008E079DBD81469717000091
:102460009387075EB6979C23014793060002BA97AD
:10247000B38EF640E387F6F63318D60133D3F50072
:1024800093560801335ED302B395D501B357F500D7
:10249000CD8F3346080813D70701B318D50133731E
:1024A000D302B305C603420333676700637BB700FB
:1024B00042971305FEFF636A07176378B716791E04
:1024C00042970D8F3355D702B3C707083377D7022A
:1024D0003303A6024207D98F63FB6700C297130735
:1024E000F5FF63E0071563FE67127915C297931530
:1024F0000E01B3876740C98DE5BD93B7061093C73A
:1025000017008E0733D8F60017170000130747533C
:1025100042971823930800023E973388E840E382ED
:10252000E8E8335EE600B3960601336EDE00B3D80A
:10253000E500935E0E01B3D7D803B3950501335779
:10254000E5004D8F33430E089356070133160601FD
:10255000B3F8D803B305F302C208B3E6160163FB70
:10256000B600F2969388F7FF63E3C60D63F1B60CED
:10257000F917F2968D8EB3D5D60333470708B3F615
:10258000D603B308B302C206558F637B1701729757
:102590009386F5FF6369C70963771709F915729781
:1025A000C207C16ECD8F9386FEFFB3F5D70013D35C
:1025B0000701F18E4182338ED50233071741B306EE
:1025C000D30293580E01B385C502B695C695330361
:1025D000C30263F3D500769393D605019A9663639D
:1025E000D7026305D7003E8581458280C166FD160E
:1025F00033F7D5004207337EDE00331505017297AD
:10260000E373E5FE1385F7FF81458280B70700017C
:102610006377F6029356060141477DB38145054530
:1026200082803A85E9B5B685A5BF2A8E59BDC68791
:1026300091B77915C297CDB37915C297CDB9935695
:102640008601614751B35D7122D406D62A842EDA01
:1026500032DC36DEBAC0BEC2C2C4C6C603A5C18261
:1026600011C51C4D81E72AC6912B32450C455418E3
:10267000228636CEEF00B020B250225461618280B3
:10268000011126CA06CE22CC4AC84EC652C4AA841C
:1026900019E11C4502901C4D2E89ADE305239C4C8D
:1026A0008044B9CF971700009387874D631DF404CA
:1026B000C0407C50858B99E75E2493F7072099E30F
:1026C000284C8D2D5E24A18B99C31C48D5E3A2858F
:1026D00026859D2A51CDFD547C50858B99E75E243B
:1026E00093F7072099E3284CB925F2406244424908
:1026F000B249224A2685D2440561828000455DB7F1
:1027000026856D2945B797170000938767456314A1
:10271000F400804479BF9717000093876742E31A5B
:10272000F4F8C04479B71CC4050963C807021C400B
:102730001387170018C08CA31C4483450900FD179C
:10274000FDF11CC463D907022286A94526853D28D0
:10275000FD57E302F5F8A94441B7184C63C4E700FC
:10276000E39745FD228626851520E31735FDA5B79D
:10277000FD59294AD1B71C401387170018C02947B3
:1027800098A3D1BFAA8503A5C182DDBD011122CCCA
:1027900026CA4AC806CE4EC6AA842E89328401C5EE
:1027A0001C4D91E32129971700009387673D63171C
:1027B000F402C0401C4C1CC45E24A18B99C31C486D
:1027C00095EFA2852685492015C97D59F2406244BE
:1027D000D244B2494A854249056182809717000078
:1027E000938707386314F4008044E9B79717000013
:1027F00093870735E310F4FCC0446DBF1C480840C4
:102800009379F90F1379F90F1D8D5C486346F50034
:10281000A2852685912C55F91C440505FD171CC47D
:102820001C401387170018C0238037015C48638859
:10283000A7005E24858BD9DBA947E319F9F8A285A7
:1028400026851D2441D551B7411122C426C24AC054
:1028500006C683A4C1822A892E8489C49C4C99E32C
:102860002685A92E97170000938787316313F402FA
:10287000C0408317C40013F7870025E713F707014B
:102880000DEB25472320E90093E707045EA47D555F
:1028900071A0971700009387A72C6314F40080445D
:1028A000C9BF971700009387A729E314F4FCC0441D
:1028B000C9B7918B9DC34C5889C99307440463845D
:1028C000F5004A85B92B232A04025E242322040042
:1028D00093F7B7FD5EA41C481CC05E2493E78700F5
:1028E0005EA41C4899EB5E241307002093F7072889
:1028F0006385E700A2854A8561298317C40013F721
:1029000017001DC35848232404003307E04018CCA7
:102910001848014501E713F707083DF7B240224484
:10292000924402494101828013F72700814611E356
:10293000544814C4F1BF8397C500011122CC26CAA4
:1029400006CE4AC84EC613F78700AA842E8479E3C0
:10295000D8416345E000B8416356E008585459C374
:1029600003A9040023A004000C5093D7C748A9CBA7
:1029700070485E24918B99C75C401D8E5C5899C34A
:102980003C401D8E5C540C50814626858297FD5735
:10299000630CF5041C480567232204001CC05E2458
:1029A000F98F91C368C84C5823A0240185CD9307A3
:1029B00044046384F5002685AD21232A04021DA06A
:1029C0000146854626850297FD572A86E313F5FAC8
:1029D0009C40C5D375476385E70059476395E70673
:1029E00023A024010145B5A098408317C40001CF5E
:1029F000F5466305D700D9466319D7041C4823223E
:102A000004001CC04DB718482322040093D7C748C0
:102A100018C041BF83A90501E38609FC03A905008D
:102A20008D8B23A0350133093941014791E3D84902
:102A300018C4E35920FB1C540C50CA864E862685C8
:102A40008297634FA0008317C40093E707045EA436
:102A50007D55F2406244D2444249B24905618280C8
:102A6000AA993309A940F1B79C49411106C622C46D
:102A700026C281EB8144B240224426859244410122
:102A80008280AA842E8401C51C4D91E3052A9717E4
:102A900000009387E70E631CF402C0408317C40054
:102AA000F1DB7850058B11E793F7072099E3284C69
:102AB00051242685A28541357C50AA84858BC5FF8B
:102AC0005E2493F70720C5FB284CB5246DB79717F4
:102AD00000009387E7086314F4008044C1B7971798
:102AE00000009387E705E31BF4FAC04445BF41119A
:102AF00022C406C62A844EA572A5232005002322DF
:102B00000500232405002322050623280500232A87
:102B10000500232C0500214681451305C505EFD08E
:102B2000DF89971700009387A7835CD09717000071
:102B30009387A7851CD497170000938767895CD477
:102B4000971700009387A78BB24000D01CD822446F
:102B50004101828097050000938545F1BDA2411196
:102B600026C2930780069384F5FFB384F4024AC01B
:102B70002E8922C406C693854407692E2A8401CD76
:102B80002320050023222501310508C4138684066D
:102B90008145EFD09F82B24022852244924402496F
:102BA000410182801385018771A21385018761A28B
:102BB0001385418741A213854187B5AA411122C4DB
:102BC00006C62A84F5371C4C89C72244B24041010D
:102BD000DDB797070000938727F81CD4232404044B
:102BE000232604042328040483A7418363948700D5
:102BF00085471CCC22853D2048C02285252008C45D
:102C000022850D2048C4484001469145CD350844F1
:102C10000546A545E93D48440946C945C93D85479E
:102C20001CCC65B7411126C24AC006C622C42A89F7
:102C3000953F83A441839C4C99E326854137938437
:102C400084048044DC40FD1763D607009C40BDC36C
:102C50008440C5BF0317C40039EBC17785075CC446
:102C60001305840523220406E92081372146232009
:102C70000400232404002322040023280400232A20
:102C80000400232C040081451305C405EFD0EFF2A6
:102C9000232A0402232C04022324040423260404EC
:102CA000B2402285224492440249410182801304A9
:102CB000840651BF91454A855D3588C02A8449F90B
:102CC000ED35B1472320F900E1BF797122D44AD014
:102CD0004ECE52CC5AC85EC606D626D256CA2A89CD
:102CE0002E8A130485048149054BFD5B0444832A25
:102CF0004400FD1A63D00A0200406DF8B25022541D
:102D000092540259624AD24A424BB24B4E85F24922
:102D100045618280DE24637BFB008397E400638748
:102D20007701A6854A85029AB3E9A90093848406AF
:102D3000C9B78280828082805971A2D42E84839503
:102D4000E500A6D2CAD086D6B284368963D20502FF
:102D50005E2493F707088DEB13070040B650265406
:102D60002320F90098C00659965401456561828078
:102D70003000C525E34E05FC3247BD67F98F7977F2
:102D8000BA9793B71700C9BF814713070004F9B773
:102D9000DE25797122D406D626D24AD04ECE898B32
:102DA0002E8491CF930774041CC01CC885475CC84F
:102DB000B250225492540259F24945618280740003
:102DC0003000AA84953FA2492A892685CE8599227A
:102DD00019E98317C40013F7072079FBF19B93E7E8
:102DE00027005EA4C1B7970700009387E7D69CD45D
:102DF0005E2408C008C893E707085EA4B247232AE8
:102E0000340199CB8315E4002685852D11C55E24F8
:102E1000F19B93E717005EA45E2433E527014AA4E3
:102E200041BFD1CD83A7C5FF011122CC06CE1384AB
:102E3000C5FF63D307003E942AC665251387C18763
:102E40001C43324581EB2322040000C36244F2405C
:102E5000056161AD637DF4001040B306C400639664
:102E6000D7009443DC43B29614C05CC0F9BF3E87E0
:102E7000DC4399C3E37DF4FE14433306D700631F9C
:102E800086001040B29614C33306D700E390C7FC07
:102E90009043DC43B29614C35CC34DBF6375C4005A
:102EA000B1471CC165B71040B306C4006396D70094
:102EB0009443DC43B29614C05CC040C341BF8280DF
:102EC00041114AC0138981878327090022C426C281
:102ED00006C6AA842E8489E78145A9292320A90052
:102EE000A285268581297D59631A25017D54B2402A
:102EF0002285224492440249410182801304350014
:102F00007198E30685FEB305A44026852521E310CC
:102F100025FFE9BF011126CA93843500F1984AC8FC
:102F2000A104B14706CE22CC4EC62A89B3F4F40AD6
:102F300063C4040063FDB400B1472320F9000145D8
:102F4000F2406244D2444249B24905618280512B29
:102F50009389C18783A709003E8431E4A6854A8509
:102F60008537FD572A846316F50A03A40900A28752
:102F7000C1EB8329040081454A85A299652E63949B
:102F8000A9081C408D044A859D8CF198B147A10485
:102F9000B3F4F40AA6852D37FD576306F5061C40E9
:102FA000A6971CC015A01440858E63C806042D4743
:102FB000637DD70204C0330794006396870223A081
:102FC000E9005C4014C35CC34A8505231305B400C3
:102FD0009307440061993307F540E303F5F63A940B
:102FE000898F1CC0B1BFD8C3E9BF58406395870023
:102FF00023A0E900D1BFD8C3C1BFA2874040B1BF61
:103000003E84DC43B5B7B1472320F9004A85F12956
:103010003DB704C155BF1C46FD171CC663DA070047
:10302000184E63C5E700A9476394F5006FF00FF6EB
:103030001C422E851387170018C28CA382800111B1
:1030400022CC26CA4AC84EC652C406CE2A89AE89A8
:103050003284B304D6007D5A63149400014501A85C
:103060000C204E864A85453F0504E31745FFF24094
:103070006244D2444249B249224A05618280357194
:1030800022CD26CB4AC94EC706CF52C556C35AC118
:10309000DEDEE2DCAA892E843289B68409C51C4DA5
:1030A00099E3EFF0BFB197170000938767AD6318FE
:1030B000F40403A449007C50858B81EB5E2493F7D4
:1030C000072081E7284CEFF0FFC65E24A18B99C34F
:1030D0001C48A5E3A2854E85EFF00FF739C97C5057
:1030E000858BA1C37D55FA406A44DA444A49BA49FE
:1030F0002A4A9A4A0A4BF65B665C0D6182809717F2
:1031000000009387E7A56315F40003A4890065B761
:10311000971700009387C7A2E31FF4F803A4C90020
:1031200059BF5E2493F70720D5FF284CEFF0BFC0AE
:1031300055BF93070002A304F1029307000302D2D4
:103140002305F10226C6930B5002971A0000938ABA
:103150002AA5294BCA849C2099C363997709338C8B
:103160002441638D2401E2864A86A2854E85C13DB5
:10317000FD576306F5189257E2973ED29C20638074
:103180000718FD571389140002C802CE3ECA02CCAC
:10319000A309010482D483450900154656853526C6
:1031A000C2479304190029E513F7070109C713075C
:1031B0000002A309E10413F7870009C71307B0024F
:1031C000A309E104834609001307A0026389E6020C
:1031D000F247CA8481462546982093851400130738
:1031E00007FD6372E60685C63ECE15A08504A5B729
:1031F00033055541B397A72826893EC869BF324792
:1032000093064700184336C6634807023ACE982013
:103210009307E002631CF70498309307A002631A37
:10322000F702B2478904138747009C433AC67D578B
:10323000B3E7E70A3ECA1DA83307E04093E727003B
:103240003ACE3EC8E9B7B3876703AE848546BA97DE
:1032500061B7850402CA8146814725469820938537
:103260001400130707FD6372E606E9F68C200D468D
:103270001715000013054593892C11CD97170000F1
:10328000938787921D8DC247130700043317A70049
:10329000D98F85043EC88C201946171500001305E8
:1032A000E590138914002304B102052435C993075E
:1032B000000095E74247B2471377071009CF9107FF
:1032C0003EC69257D2973ED271B5B3876703AE849C
:1032D0008546BA9761B79D07E19BA107D5B77800EE
:1032E000970600009386E6D522860C084E85970047
:1032F0000000E7000000FD572A8AE314F5FC7C502B
:10330000858B81EB5E2493F7072081E7284CEFF053
:103310009FA25E2493F70704E39607DC1255E1B3FE
:103320007800970600009386C6D122860C084E8549
:10333000F124D1B7411122C42A842E8523A001880B
:1033400006C6EFE0FFCAFD576316F50083A70188A4
:1033500091C31CC0B240224441018280411122C469
:103360002E848395E50006C6012B634905007C4841
:10337000AA977CC8B2402244410182805E24939780
:10338000C7485EA4C5BFDE25011122CC26CA4AC8A3
:103390004EC606CE93F70710AA842E843289B689CA
:1033A00091C78395E50089460146DD285E24831593
:1033B000E400F2409397C7485EA46244CE864A86F2
:1033C000B24942492685D24405611DA8411122C453
:1033D0002E848395E50006C6E1207D575E2463199F
:1033E000E5009397C7485EA4B24022444101828021
:1033F0009397C72868C85EA4C5BF8395E5003DA024
:10340000411122C42A842E85B285368623A00188E4
:1034100006C6EFE01FBAFD576316F50083A70188C3
:1034200091C31CC0B240224441018280411122C498
:103430002A842E8523A0018806C6A521FD57631680
:10344000F50083A7018891C31CC0B240224441010A
:103450008280411122C42A842E85B28523A001884E
:1034600006C6B121FD576316F50083A7018891C3F5
:103470001CC0B240224441018280411122C42A84EE
:103480002E8523A0018806C60D29FD576316F50079
:1034900083A7018891C31CC0B240224441018280AD
:1034A000411122C42A842E85B285368623A0018844
:1034B00006C61129FD576316F50083A7018891C33D
:1034C0001CC0B24022444101828093F5F50F2A9638
:1034D0006314C500014582801C21E38EB7FE0505FB
:1034E000C5BF1385C1866FF0FF841385C1866FF059
:1034F0009F84797156CA9C49BA8A984522D44AD089
:103500004ECE52CC06D626D25AC85EC6B3E7E70ADC
:103510001CC203C73504AA892E843289368A19C38E
:1035200085071CC21C4093F7070291C78327090037
:1035300089072320F9000440998891E8130B94012E
:10354000FD5B5C4403270900998F63CCF404834737
:103550003404B336F0001C4093F70702A5EB1306C2
:103560003404D2854E85829AFD576303F5041C40CE
:1035700011478144998B6399E700832709004444EC
:103580009D8C8147B3E4F40A1C4418486354F70047
:10359000998FBE94014969047D5B639824050145B8
:1035A00009A885465A86D2854E85829A631E750182
:1035B0007D55B250225492540259F249624AD24A7D
:1035C000424BB24B456182808504A5BF3307D400CE
:1035D00013060003A301C70403475404938716008E
:1035E000A2978906A381E7049DBF85462286D285DE
:1035F0004E85829AE30E65FB050945B7797122D4A1
:103600004AD04ECE52CC06D626D256CA5AC803C885
:103610008501930780072A892E84B289368A63E25E
:103620000703930720069386350463E10703630CC1
:10363000081C93078005170600001306A6576308A9
:10364000F814930424042301040515A89307D8F95A
:1036500093F7F70F5546E366F6FE170600001306CC
:10366000E657B3C7C7209C43B29782871C43938415
:103670002504938647009C4314C32381F5048547A2
:1036800075A290411C43137506089385470029C114
:103690009C430CC3584063DF07129305D002A3017B
:1036A000B40418C4635E0702B307F04017060000B5
:1036B000130646502948B68433F70703FD143297A2
:1036C000182398A03E87B3D70703E37707FF85A0A9
:1036D0009C43137506040CC355DD939757605DBF7B
:1036E0006D9A10C0D1B790411C431375060893859D
:1036F000470001C50CC39C4331A0137606040CC3DC
:103700007DDA9E231307F006170600001306864A8B
:103710006310E80C2148A3010404584018C4E34C8A
:1037200007F80C40ED990CC0D9F7B68449F7A147CA
:10373000631EF8001C40858B91CB58401C4863C722
:10374000E70093070003A38FF4FEFD14858E14C8D1
:103750005287CE867000A2854A85EFF09FD9FD5A28
:10376000631A550D7D55B250225492540259F249B4
:10377000624AD24A424B456182809C4193E70702EC
:103780009CC113088007170600001306E643A30236
:1037900004050C401C4313F8050813854700630516
:1037A000080008C39C4339A013F8050408C3E30BC1
:1037B00008FE9E2313F7150001C793E505020CC010
:1037C00099C3414889BF18401377F7FD18C0D5BF8A
:1037D000294891B7170600001306C63D294835BF92
:1037E00090411C43CC4913780608138547006306B3
:1037F000080008C39C438CC339A008C31376060491
:103800009C4375DA8EA323280400B68491B71C4329
:10381000D04181459386470014C384432685EFF049
:10382000DFCA01C5B30795405CC05C401CC8A3015A
:10383000040439BF14482686CE854A85029AE303DC
:1038400055F31C40898B85E74844B2473365F50A38
:1038500019BF85465686CE854A85029AE30465F1EE
:1038600085045C443247998FE3C5F4FEF1BF81447F
:10387000930A94017D5BF5B7411122C42A842E85F9
:10388000B285368623A0018806C6A120FD5763169F
:10389000F50083A7018891C31CC0B24022444101B6
:1038A00082809307800523A0F1887D55828093074D
:1038B000800523A0F1887D5582809307800523A091
:1038C000F188014582809307800523A0F1887D550A
:1038D00082809307800523A0F1887D5582800000B7
:1038E00053797374656D436C6B3A25640D0A00005F
:1038F0005633462053797374656D436F7265436C1C
:103900006B3A25640D0A0000A6151020BC14102087
:10391000DA13102020151020DA1310204414102080
:1039200032131020DA13102092141020A814102043
:10393000A015102050141020D61A10200E1A102096
:1039400066181020721A102066181020D619102040
:103950009418102066181020E4191020FA1910206D
:10396000D01A10203C19102016033000310032000C
:1039700033003400350036003700380039000000CD
:103980001A0343004800330032004800340031007D
:103990003700200049004100500000000E0377006E
:1039A000630068002E0063006E0000000600FF093F
:1039B00001A101090226FF00750815009540810646
:1039C0000902150026FF00750895409106C0000009
:1039D00009022900010103802309040000020300F9
:1039E0000000092111010001222200070502034005
:1039F00000010705820340000100000012010002DF
:103A0000FFFFFF40861A17FE0101010200010000BE
:103A10006A756D70204150500D000000693D2530E1
:103A2000386C780A000000000C201020762010204E
:103A3000D02010207A2110208E20102000010202B8
:103A40000303030304040404040404040505050536
:103A50000505050505050505050505050606060612
:103A600006060606060606060606060606060606F6
:103A700006060606060606060606060607070707E2
:103A800007070707070707070707070707070707C6
:103A900007070707070707070707070707070707B6
:103AA00007070707070707070707070707070707A6
:103AB0000707070707070707070707070808080892
:103AC0000808080808080808080808080808080876
:103AD0000808080808080808080808080808080866
:103AE0000808080808080808080808080808080856
:103AF0000808080808080808080808080808080846
:103B00000808080808080808080808080808080835
:103B10000808080808080808080808080808080825
:103B20000808080808080808080808080808080815
:103B30000808080808080808080808080000000025
:103B40000000000000000000000000000000000075
:103B50000000000000000000000000000000000065
:103B60000000000000000000000000000000000055
:103B70000000000000000000000000000000000045
:103B80000000000000000000000000000000000035
:103B9000000000000000000000000000232D302B7A
:103BA00020000000686C4C006566674546470000D1
:103BB0003031323334353637383941424344454663
:103BC0000000000030313233343536373839616225
:103BD000636465660000000094FAFFFFAAFAFFFF25
:103BE0006AFAFFFF6AFAFFFF6AFAFFFF6AFAFFFF4D
:103BF000AAFAFFFF6AFAFFFF6AFAFFFF6AFAFFFFFD
:103C00006AFAFFFF08FCFFFF0EFBFFFFA2FBFFFFAE
:103C10006AFAFFFF6AFAFFFF36FCFFFF6AFAFFFF4E
:103C20000EFBFFFF6AFAFFFF6AFAFFFFAAFBFFFF26
:103C300097D11020938101DB171111201301813CD2
:103C40001305800097C510209385C53B17C610202B
:103C50001306C64963FAC5008322050023A0550058
:103C600011059105E3EAC5FE97C01020E780803971
:103C7000B70237129382123E739002BC8542739052
:103C800012BCAD4273904280996293828208739015
:103C9000023097C20F209382E23693E23200739093
:103CA000523097C20F2093820265739012347300D2
:043CB00020300000C0
:103CB400191C1E202326282D32383C40464C505ACD
:103CC40000000000000000000102030406070809C8
:103CD400040607081109130A150B170C190D0E0F0A
:103CE400101112131416181A1C1E20222426283B05
:103CF400191C1E202326282D32383C40464C505A8D
:103D04000000000000000000010203040607080987
:103D1400040607081109130A150B170C190D0E0FC9
:103D2400101112131416181A1C1E20222426283BC4
:103D3400000000008C3A10206C3A10204C3A1020FD
:103D4400000000000000000000000000000000006F
:103D5400000000000000000000000000000000005F
:103D6400000000000000000000000000000000004F
:103D7400000000000000000000000000000000003F
:103D8400000000000000000000000000000000002F
:103D94000001020200E1F5050084D71702040608B9
:103DA400000000000102030400010202282C11207B
:103DB400002000000060000800600008800111205D
:083DC400040309048001112031
:00000001FF
